:100000000C9462000C948A000C948A000C948A0070
:100010000C948A000C948A000C948A000C948A0038
:100020000C948A000C948A000C948A000C948A0028
:100030000C948A000C948A000C948A000C948A0018
:100040000C9419030C948A000C948A000C948A0076
:100050000C948A000C948A000C948A000C948A00F8
:100060000C948A000C948A000000000024002700F1
:100070002A0000000000250028002B0000000000DE
:1000800023002600290004040404040404040202DA
:100090000202020203030303030301020408102007
:1000A0004080010204081020010204081020000012
:1000B0000008000201000003040700000000000027
:1000C0000000920411241FBECFEFD8E0DEBFCDBFE9
:1000D00011E0A0E0B1E0ECE7F9E002C005900D927C
:1000E000AE33B107D9F721E0AEE3B1E001C01D9214
:1000F000AF35B207E1F710E0C2E6D0E004C02197C7
:10010000FE010E94B104C136D107C9F70E94630302
:100110000C94BC040C940000CF92DF92EF92FF92FB
:100120000F931F93CF93DF936C017A018B01C0E093
:10013000D0E0CE15DF0589F0D8016D918D01D60193
:10014000ED91FC910190F081E02DC6010995892B7C
:1001500011F47E0102C02196ECCFC701DF91CF914F
:100160001F910F91FF90EF90DF90CF900895833013
:1001700081F028F4813099F08230A1F00895873021
:10018000A9F08830B9F08430D1F4809180008F7D5F
:1001900003C0809180008F7780938000089584B59C
:1001A0008F7702C084B58F7D84BD08958091B000A3
:1001B0008F7703C08091B0008F7D8093B000089549
:1001C0001F93CF93DF93282F30E0F901E255FF4FC3
:1001D0008491F901E656FF4FD491F901EA57FF4F98
:1001E000C491CC23C9F0162F81110E94B700EC2FC7
:1001F000F0E0EE0FFF1FEE58FF4FA591B4918FB7BF
:10020000F894111105C09C91ED2FE095E92302C0EF
:10021000EC91ED2BEC938FBFDF91CF911F9108955F
:10022000CF93DF9390E0FC01E656FF4F2491FC0151
:10023000EA57FF4F8491882361F190E0880F991F5E
:10024000FC01E859FF4FC591D491FC01EE58FF4FD6
:10025000A591B491611109C09FB7F8948881209548
:1002600082238883EC912E230BC0623061F49FB708
:10027000F8943881822F809583238883EC912E2BEC
:100280002C939FBF06C08FB7F894E8812E2B28834C
:100290008FBFDF91CF9108953FB7F89480914301CC
:1002A00090914401A0914501B091460126B5A89BCB
:1002B00005C02F3F19F00196A11DB11D3FBFBA2FF8
:1002C000A92F982F8827820F911DA11DB11DBC0158
:1002D000CD0142E0660F771F881F991F4A95D1F71D
:1002E00008958F929F92AF92BF92CF92DF92EF923A
:1002F000FF926B017C010E944C014B015C01C11417
:10030000D104E104F104F1F00E944C01DC01CB01C5
:1003100088199909AA09BB09883E9340A105B1052E
:1003200070F321E0C21AD108E108F10888EE880EC6
:1003300083E0981EA11CB11CC114D104E104F10496
:1003400019F7DDCFFF90EF90DF90CF90BF90AF9087
:100350009F908F900895CF93DF93EC0160E08E81A2
:100360000E94E00061E08E810E94E00060E08E81EA
:100370000E94E0008BE891E00197F1F7DF91CF91C7
:100380000895CF92DF92EF92FF920F931F93CF9336
:10039000DF937C016C0187E0C80ED11CC0E0D0E087
:1003A000062F10E0B8010C2E02C0759567950A94CF
:1003B000E2F76170F60181916F010E94E0002196E1
:1003C000C430D10579F7C701DF91CF911F910F910B
:1003D000FF90EF90DF90CF900C94AB01CF92DF9223
:1003E000EF92FF920F931F93CF93DF93EC01F62EC2
:1003F000642F8C810E94E0008D818F3F19F060E0B6
:100400000E94E0008F850F2D10E084FF25C06E0153
:1004100087E0C80ED11CE12CF12CB8010E2C02C0D3
:10042000759567950A94E2F76170F60181916F0105
:100430000E94E000FFEFEF1AFF0A88E0E816F104DF
:1004400061F7CE01DF91CF911F910F91FF90EF9057
:10045000DF90CF900C94AB01B80184E0759567955F
:100460008A95E1F7CE010E94C1016F2DCE01DF9187
:10047000CF911F910F91FF90EF90DF90CF900C9450
:10048000C10141E00E94EE0181E090E0089540E06A
:100490000C94EE01643008F063E090915A01691702
:1004A00010F06FEF690FE62FF0E0E95BFE4F9489E3
:1004B000682F690F606887E491E00C94470261E05F
:1004C0000E9447028BE39FE10197F1F70895EF92B5
:1004D000FF920F931F93CF93DF93EC01623018F0DC
:1004E0008F8588608F876B8B1C8A80E48D8B80E181
:1004F0008E8B80E58F8B61E08C810E9410018D8155
:100500008F3F19F061E00E94100161E08E810E942E
:1005100010017E0187E0E80EF11C00E010E08F85FD
:1005200084FD03C084E090E002C088E090E00817FA
:1005300019074CF461E0F70181917F010E941001DD
:100540000F5F1F4FECCF8BE39DE00197F1F760E069
:100550008C810E94E00060E08E810E94E0008D812D
:100560008F3F19F060E00E94E0006F8564FD1DC0C0
:1005700063E0CE010E94C1010BE416E4C8010197BB
:10058000F1F763E0CE010E94C101C8010197F1F7C4
:1005900063E0CE010E94C10183E592E00197F1F78B
:1005A00062E0CE010E94C10116C06062CE010E94CD
:1005B00047028BE496E40197F1F76F856062CE0104
:1005C0000E94470283E592E00197F1F76F85606230
:1005D000CE010E9447026F856062CE010E944702F1
:1005E00084E0888B6CE0CE010E944702CE010E941D
:1005F0005F0282E0898B66E0CE01DF91CF911F918F
:100600000F91FF90EF900C944702009769F0FC0166
:1006100001900020E9F73197AF01481B590BBC014D
:1006200087E491E00C948C0080E090E008950E94B3
:10063000B7041F920F920FB60F9211242F933F937E
:100640008F939F93AF93BF9380913F01909140010F
:10065000A0914101B091420130913E0123E0230F6E
:100660002D3720F40196A11DB11D05C026E8230FEA
:100670000296A11DB11D20933E0180933F019093EE
:100680004001A0934101B0934201809143019091B8
:100690004401A0914501B09146010196A11DB11DF3
:1006A0008093430190934401A0934501B093460188
:1006B000BF91AF919F918F913F912F910F900FBE5E
:1006C0000F901F901895789484B5826084BD84B58E
:1006D000816084BD85B5826085BD85B5816085BD3D
:1006E00080916E00816080936E00109281008091F5
:1006F000810082608093810080918100816080937D
:100700008100809180008160809380008091B100A1
:1007100084608093B1008091B00081608093B000CC
:1007200080917A00846080937A0080917A00826060
:1007300080937A0080917A00816080937A00809122
:100740007A00806880937A001092C10060E082E1B4
:100750000E94100160E083E00E94100161E082E0ED
:100760000E94100161E081E00E94100161E080E0E0
:100770000E94100162E087E491E00E946702C1EBF1
:10078000D0E00DE910E039E8E32E30E0F32E44E448
:10079000A42E50E0C52E50E0D52E60E080E00E94EF
:1007A0004A0288E091E00E94050361E084E00E9433
:1007B0004A0288E191E00E940503FE018491F8015C
:1007C0009490F701B490BB20A9F081110E94B7006A
:1007D0008B2D90E0880F991F84589F4FFC01A591A5
:1007E000B4918C91982231E020E009F430E0832F1D
:1007F000922F02C080E090E0A0927C0020917A00CD
:10080000206420937A0020917A0026FDFCCF80900E
:10081000780020917900912C922A0197B9F487E40D
:1008200091E00E945F0261E080E00E944A0280E263
:1008300091E00E94050361E082E00E94E00068EE22
:1008400073E080E090E00E94710104C060E082E00B
:100850000E94E000F9E78F1691040CF45CC087E475
:1008600091E00E945F0260E080E00E944A028EE216
:1008700091E00E94050361E081E00E94E00064E6EF
:1008800070E080E090E00E94710161E080E00E94F1
:10089000E00064E670E080E090E00E94710160E0BA
:1008A00081E00E94E00064E670E080E090E00E9459
:1008B000710160E080E00E94E00064E670E080E0AA
:1008C00090E00E94710161E081E00E94E00064E636
:1008D00070E080E090E00E94710161E080E00E94A1
:1008E000E00064E670E080E090E00E94710160E06A
:1008F00081E00E94E00064E670E080E090E00E9409
:10090000710160E080E00E94E00064E670E080E059
:1009100090E00E947101C114D10409F43ECF0E94FD
:1009200000003BCFE7E4F1E01382128284E091E023
:10093000918380838DE084838FEF85838CE0868331
:100940008BE087838AE0808789E0818788E08287DF
:100950001386148615861686178661E0CF010C94DF
:100960006702EE0FFF1F0590F491E02D099481E0DE
:0C09700090E0F8940C94BC04F894FFCFC5
:10097C000000000041028C0056454849434C45207C
:10098C00534552564943450054455354494E47002C
:10099C0048454C4D455420574541524544004C491F
:0E09AC0051554F5220434F4E53554D45440078
:00000001FF
